:02000000D82CFA
:10000800FF00030E83018316CA000A08C9008A018B
:1000180070088312A9007108A8007208A700740864
:10002800A6007508A5007808A4007908A3007B0835
:10003800A2007C08A1007D08A0000408AA000B1DEE
:10004800F829F03081008316C50A0319C60A352439
:100058007008C3007108C4000230F200F301F40113
:10006800F50183126608F20767080318670FF3079C
:1000780068080318680FF40769080318690FF5077B
:100088007208E6007308E7007408E8007508E900DC
:100098006C0872028316C70083126D08031C013EA8
:1000A80073028316C80083126B087102031D5E2851
:1000B8006A08700203188A280530F4000030F50039
:1000C8005E08F0005F08F1002E220330F4000030D3
:1000D800F500AD24831648087102031D75284708EA
:1000E800700203188A2883125D0883164402031DD0
:1000F800812883125C088316430203188A28430860
:100108008312DC00831644088312DD00831644083A
:1001180083126B02031D94288316430883126A0214
:100128000318A328831644082E02031D9D2843089C
:100138002D020318A3284308AD004408AE00831617
:100148008030F000803048067002031DAD28470853
:10015800FA3C03188B29440883126B02031DB82844
:100168008316430883126A0203188B2983162A18F8
:100178008B290530F4000030F50083125E08F0008A
:100188005F08F1002E220330F4000030F500AD24A2
:10019800831648087102031DD32847087002031804
:1001A8008B292A1483126C086602DE006D08031C72
:1001B800013E6702DF006608EC006708ED0068088A
:1001C800EE006908EF0083162A1D0C292A118312F4
:1001D800E001E1018030F000803061067002031D0B
:1001E800F7286008093C031C0C296008F000610826
:1001F800F100F00DF10D70107008AF3E84005E083C
:1002080080005F08840A8000E00A0319E10AEE28EA
:100218008316AA1D1229AA112A15F8298312E401A6
:10022800E501E001E1018030F000803061067002F4
:10023800031D20296008083C031C5F296008F000A2
:100248006108F100F00DF10D70107008AF3EF50077
:100258006008013EF30000300318013E6107F40016
:100268007308F0007408F100F00DF10D70107008BB
:10027800AF3E84000008F000840A0008F100750809
:100288008400700880007108840A80006008F0000B
:100298006108F100F00DF10D70107008AF3E840098
:1002A8000008E407840A00080318013EE507E00A8D
:1002B8000319E10A17295E088316C10083125F0833
:1002C8008316C20083125E086407F00065080318ED
:1002D800013E5F07F1007008E4007108E5000A308C
:1002E800F4000030F50044247008E4007108E500CB
:1002F8007008F4007108F5006030F000EA30F10091
:100308002E2270088316A8007108A900AA14831267
:100318006B0883164402031D952983126A08831605
:1003280043020318CF292A1CCF292A1083125C08FC
:1003380083162D02F30083125D08031C013E831609
:100348002E02F40073088312E2007408E3007308B5
:10035800F0007408F100F10CF00CF113711BF117A7
:10036800F11FBB29031CBB29F00A0319F10A5C0819
:10037800F0075D080318013EF1077008EA007108EC
:10038800EB0070088316AD007108AE007008831288
:10039800DC007108DD008030093AF00080308316F7
:1003A80048067002031DDA294708C43C0318F629D9
:1003B80000308312EA000230EB0000308316AD00F3
:1003C8000230AE0000308312DC000230DD00660827
:1003D800EC006708ED006808EE006908EF00831676
:1003E800AA152A11FB308B0583122908F00028086A
:1003F800F1002708F2002608F4002508F500240873
:10040800F8002308F9002208FB002108FC00200856
:10041800FD002A088400831649088A004A0E8300D2
:06042800FF0E7F0E09002B
:06042E00000000000800C0
:100434000F3083120313FC004730FD00FD0B202A0C
:0A044400FC0B202A00000000080055
:0E044E00213083120313FD00FD0B2B2A080042
:10045C0083120313F801F9011030FC00710DF80D33
:10046C00F90D7408F8027508031C750FF9020318CE
:10047C00462A7408F80775080318750FF907031056
:0A048C00F00DF10DFC0B342A0800FE
:1004960083160313DB1B522A83128813542A8312F2
:1004A600881783165B1B5A2A831208135C2A831249
:1004B60008178316DB1A622A83128812642A8312AB
:1004C600881683165B1A6A2A831208126C2A83120C
:1004D600081683162A1A722A83120815742A83129A
:1004E60008118815172288118316DB197D2A8312B5
:1004F60088137F2A8312881783165B19852A83122D
:100506000813872A831208178316DB188D2A83128D
:1005160088128F2A8312881683165B18952A8312EF
:100526000812972A8312081683162A1A9D2A8312FE
:1005360008159F2A83120811881517228811831619
:0C0546002A1EA72A1A22A82A2722080031
:1005520083160313D901053059020318B72A590823
:100562005807840020308000D90AAC2A590858075D
:1005720084008001D90359085807DA000A30F400D0
:10058200F5015608F0005708F1002E227808F00015
:100592007908F1003030F00783165A088400700899
:1005A20080000A30F400F5015608F0005708F10007
:1005B2002E2270088316D6007108D700003071060B
:1005C200031DE52A00307006031DE82AEA2AD90332
:0405D200BC2A080037
:1005D600831603132A125608DB004B2283162A16AB
:0205E60008000B
:0E05E800831603132C088A002B0882000800DB
:1005F600710DF80DF90D7408F8027508031C750FD6
:10060600F902F00DF10D0F30FC00710DF80DF90D2A
:100616007408701C142BF8027508031C750FF90278
:10062600192BF80775080318750FF907F00DF10D6A
:10063600FC0B082B7018252B7408F807750803188F
:08064600750FF9070000080020
:10064E004130831203139F00CE3083169F000800A3
:10065E0083160313D201D3014D08D4004E08D500E2
:10066E0080304E06F00080307002031D402B0030AB
:10067E004D0203184E2B0130D2000030D3004D082E
:10068E00003CD4004E08031C013ED501D50254088F
:10069E00D6005508D7004F08D800A9220630D00042
:1006AE000030D1005108003C031D5F2B5008003C68
:1006BE0003187A2B50084F07F20001305002F00059
:1006CE000030031C013E5102F10070084F078400F8
:1006DE000008F00072088400700880000130D0021B
:1006EE00031CD103592B4F08840020308000520880
:1006FE0053040319982BD001D10150084F078400E1
:10070E000008203A031D8F2BD00A0319D10A842B1F
:10071E000130D002031CD10350084F0784002D3046
:04072E00800008003F
:10073200F4228A110A128000840AAB0A0319AC0A55
:08074200F003031D992B0800D0
:10074A0083160313881108110812881208138813D4
:10075A0083128811081188130813881208121A22A2
:10076A001A221A22881608168815172288111A22A0
:10077A008815172288111A228815172288111A2219
:10078A0008128815172288111A228815172288112B
:10079A00881288178815172288111A2288130816B2
:1007AA0088151722881108128815172288111A220B
:1007BA0088151722881108168815172288111A22F7
:1007CA00081288151722881188170817881608161C
:0E07DA008815172288111A2283162A16080085
:1007E800062C803083160313CD00192CC030CD00A1
:1007F800192C9430CD00192CD430CD00192C803010
:10080800CD00192C831603134D08013A0319F52B53
:100818004D08023A0319FA2B4D08033A0319FD2B28
:100828004D08043A0319002C032C4E03F0004D0820
:10083800F0077008CD007008DB004B2283162A12DF
:10084800D00150084F07840000080319332C5008C2
:100858004F0784000008D600EB22D00A252C2A1660
:02086800080086
:10086A00831203131F151F1D3B2C382C1E08F10081
:0E087A00F00183161E08F0040030F10408009F
:10088800831203137408003A031D532C7508003AA9
:10089800031D532CFF30F0007F30F100AC2C831285
:1008A8000313FD01F901F8017108700403190034FC
:1008B80071087506FA00FA1BFD09FB01F51F692C82
:1008C800F409F509F40A0319F50AF11F702CF00967
:1008D800F109F00A0319F10A71087504FA00FA1B04
:1008E800852CFB227B18982CFD1F0034F009F10998
:1008F800F00A0319F10AF809F909F80A0319F90ABB
:100908000034F51F942CF11B902C7108F900700825
:10091800F800F101F001782CF101F001F00A00343F
:10092800F109F009FB0A752CF80A0319F90A740889
:100938007802031D782C75087902031D782CF901BB
:10094800F801F00A0319F10AF11F782C0000FF34AE
:02095800080095
:10095A0083120313FB01FA01F9018030F800F10C4C
:10096A00F00C031CC12C7408F90775080318750FDD
:10097A00FA070318FB0A0310F01FC92C7408FA07B8
:10098A0075080318750FFB07FB0CFA0CF90CF80C29
:10099A00031CB42C7B08F3007A08F2007908F100F2
:0609AA007808F0000800CF
:1009B000C025831603132A10AA10AA152A11A523ED
:1009C0000130DB004B220330FB000830FC007730A5
:1009D000FD00FD0BE92CFC0BE92CFB0BE92C0C308A
:1009E0008316DB004B220330FB000830FC0077301D
:1009F000FD00FD0BF92CFC0BF92CFB0BF92C013045
:100A00008316CD000130CE002B30CF00F423103000
:100A1000FB003930FC000D30FD00FD0B0D2DFC0BF3
:100A20000D2DFB0B0D2D00000000CB01CC01803003
:100A30004C06F0008030003A7002031D212D0E306C
:100A40004B020318392D1830DB004B220330FB001A
:100A50008A30FC005530FD00FD0B2C2DFC0B2C2D9D
:100A6000FB0B2C2D000000008316CB0A0319CC0AC7
:100A7000172D0130DB004B220330FB000830FC0057
:100A80007730FD00FD0B422DFC0B422DFB0B422D60
:100A90002723AA1C742D0130CD000130CE0049302F
:100AA000CF00F4230230CD000130CE005A30CF0009
:100AB000F4232808CD002908CE00A030CF002F2332
:100AC0000230CD000830CE00A030CF00F423153026
:100AD000FB004B30FC00BE30FD00FD0B6D2DFC0B10
:0C0AE0006D2DFB0B6D2D0000492D752DB8
:100B80002B308400453083120313F0007B30831632
:0A0B9000AB000530AC00992308000B
:100AF60045344C3445344334543452344F344E34F4
:100B0600493443342034483445344134523454341F
:100B16002034523441345434453420344D344F3427
:0C0B26004E34493454344F3452340034FF
:100B320048344534413452345434203452344134EC
:100B42005434453420342834423450344D3429341A
:020B520000346D
:040B54002034003415
:040B5800003402342F
:040B5C0058340234D3
:040B60000034003429
:040B640064340034C1
:040B68000034003421
:080B6C000034003400340034B1
:040B74000034023413
:080B78000034003400340034A5
:02400E004A2F37
:00000001FF
