:02000000E82DE9
:10000800FF00030E83018316C7000A08C6008A0191
:1000180070088312A6007108A5007208A40073086E
:10002800A3007408A2007508A1008B1C27282708C4
:10003800013A031D2128F50123280130F500750830
:10004800A7008B1065280B1D2F288101BF0A0319F3
:10005800C00A0B1165280D1C5F2883163F08031979
:10006800452883126608F000F10170089C006508B5
:100078009B008316BF01093083129D008F018E01FA
:100088005D2883126508403CF3006608031C013EA6
:100098009C3CF4007408F000F10170089C0073089F
:1000A8009B0008309D0001308316BF0083128F012A
:1000B8008E010D1065288C1C6528E70A0319E80ACB
:1000C8008C102608F0002508F1002408F200230807
:1000D800F3002208F4002108F500831646088A0078
:0A00E800470E8300FF0E7F0E090093
:0600F20000000000080000
:1000F8000F3083120313FC004730FD00FD0B8228EC
:0A010800FC0B822800000000080034
:0E011200213083120313FD00FD0B8D28080021
:1001200083160313CE1B97288312881399288312F2
:10013000881783164E1B9F2883120813A128831249
:1001400008178316CE1AA72883128812A9288312AB
:10015000881683164E1AAF2883120812B12883120C
:10016000081683163C18B72883120815B92883127D
:1001700008118815792088118316CE19C228831298
:100180008813C4288312881783164E19CA2883122D
:100190000813CC28831208178316CE18D22883128E
:1001A0008812D4288312881683164E18DA288312F0
:1001B0000812DC288312081683163C18E2288312E2
:1001C0000815E428831208118815792088118316F0
:0C01D0003C1CEC287C20ED288920080055
:0E01DC00F201F101F001F801F301003008001A
:0801EA00FA1FF21300300800B7
:1001F2007B15FB1F03290130F300F201F101F0012D
:08020200FA0DF20CFF300800B8
:10020A0083160313CC0DCD0D4C108312E701E801C0
:10021A0083164D0883126802031D172983164C089A
:0C022A008312670203181A290D2908002E
:0C023600831603134C0883129500080087
:10024200831603133C104C08CE00902083163C14F6
:020252000800A2
:1002540083120313E901EA0183164C08F1004D08E7
:10026400F200F10DF20D7110720883126A02031D7F
:100274003D2971086902031844290000E90A031999
:06028400EA0A2E29080021
:10028A007B14FB1F5029F201FA1FFF30F200F10024
:0A029A00F000FA0DF20CFF3008002E
:1002A400FB14FB1F5C29FF30F300F200F100F000A7
:0802B400FA0DF20CFF30080006
:1002BC00A0017208031D73297108F2007008F10087
:1002CC00F001A0157208031D73297108F200F101E9
:1002DC00A01120167208031981292008F302031DAE
:1002EC00031C85290310F21B8929F00DF10DF20D69
:1002FC00F30B792985290130FC00EE208C29023082
:0E030C00FC00F9208C290430FC00F5200800CC
:06031A00FB15FF30080096
:10032000A229803083160313C800B529C030C80045
:10033000B5299430C800B529D430C800B52980301B
:10034000C800B529831603134808013A03199129F7
:100350004808023A031996294808033A03199929CB
:100360004808043A03199C299F294903F0004808CA
:10037000F0077008C8007008CE00902083163C106B
:10038000CB014B084A07840000080319CF294B080A
:100390004A0784000008CC002121CB0AC1293C1463
:0203A000080053
:1003A200831203137408003A031DEC297508003AFE
:1003B200031DEC297608003A031DEC297708003A60
:1003C200031DEC29FF30F000FF30F1007F30F20016
:1003D200FF30F300872A83120313770803197B2A5D
:1003E200730803197E2A720876068039FA00F2171A
:1003F200F617A0017208F8007108FC007008FD00F1
:100402007408FD027508031C750FFC027608031CB4
:10041200760FF802F801FC01FD01031C172A0310F4
:10042200F20CF10CF00CF80C0130A0007708F3028A
:10043200031C212A7E302007F3070318812A262A6B
:100442007E302007F307031C842A1830FA07FD0DBB
:10045200FC0DF80DF00DF10DF20DA00D7408F00277
:100462007508031C750FF1027608031C760FF20261
:10047200760DA004201C3F2A7D144A2A7408F00736
:1004820075080318750FF10776080318760AF20744
:100492007D10FA031F307A05031D282A7B1B7D1C61
:1004A200712A0310F00DF10DF20DA00D7408F00287
:1004B2007508031C750FF1027608031C760FF20211
:1004C200760D20040139FD070318FC0A0319F80A06
:1004D200031D712AF80CFC0CFD0CF30A0319812A86
:1004E200FA1FF8137808F2007C08F1007D08F0008A
:1004F2000030862A01308D21862A0230EE20862A9B
:0E05020004305221862A0830F920000008003B
:0E051000831203136D088A006C088200080035
:10051E0007308312031392000C309700FA308316C3
:08052E00920083129501080000
:1005360083120313F801F9011030FC00710DF80D58
:10054600F90D7408F8027508031C750FF9020318F3
:10055600B32A7408F80775080318750FF90703100E
:0A056600F00DF10DFC0BA12A0800B6
:1005700083160313C9010830490203180B2B0230FC
:1005800083120805F00000300039F100F009F1098C
:10059000700871040319CD2ABF2A1E308316CC00BF
:1005A0000030CD002A2102300805F000003000396B
:1005B000F100F009F109700871040319F32A831698
:1005C0004908073CF0007008F1000130F0007108A4
:1005D0000319EE2AF00D7010FF3EE82A8316F00989
:1005E0007008C805082B83164908073CF0007008FE
:1005F000F1000130F00071080319022BF00D7010AA
:10060000FF3EFC2A7008C8048312881C082B042BA8
:0C0610008316C90ABB2A4808F000080045
:10061C004130831203139F00C43083169F000130B6
:04062C00850008003D
:1006300083120313EB0128308316CC000030CD0069
:100640002A2102300805F00000300039F100F009DD
:10065000F1097008710403193D2B50308316CC004A
:100660000030CD002A21881C372B0130EB002830C8
:0C0670008316CC000030CD002A210800C9
:10067C008316031388108312881012308316CC0053
:10068C000030CD00052188141E308316CC000030BC
:0A069C00CD002A21831688140800FF
:1006A60083120313FB0173080319902B7208FA00D7
:1006B600F2178E30F302F31F932BF309F30A083077
:1006C6007302031C762BF300F10D7208F100F201A0
:1006D60008307302031C762BF300F10DF101730849
:1006E600031D03107E2B730803197E2B0310F20CD7
:1006F600F10CF30B792B7B1B711C882B031C882BAD
:10070600F10A0319F20AF21B9F2BFA1FA22BF20918
:10071600F109F10A0319F20AA22BF201F101A22B47
:100726007B14FB1FA52BF201FA1FA52BFF30F2004D
:10073600F100FA0DF20CA52B0130FC00A72B0030BE
:10074600FC00A72BFF30FC00FC080319AB2B45214E
:0A0756007108F0007208F1000800BD
:10076000831603134808043A031DBA2BCC01CD01AC
:100770001B21EA2B83164808003A031DC52B831260
:100780008610061586150612E52B83164808013AD1
:10079000031DD02B83128614061186110616E52B35
:1007A00083164808023A031DDB2B831286140611B8
:1007B00086150612E52B83164808033A031DE52B20
:1007C00083128610061586110616C8308316CC00D3
:0607D000CD011B21080011
:1007D600FD2B803083160313C800102CC030C800D0
:1007E600102C9430C800102CD430C800102C803047
:1007F600C800102C831603134808013A0319EC2B82
:100806004808023A0319F12B4808033A0319F42B56
:100816004808043A0319F72BFA2B4903F000480855
:10082600F0077008C8003C147008CE0090208316AC
:0E0836003C104A08CE00902083163C140800A7
:10084400831203137008F8007108F000F101F2013B
:10085400F301FB01FC019630F300FA01F01F382C80
:10086400F809F009F80A0319F00AFA177008F100F8
:0C0874007808F000F801F2015E21080095
:100880008B168312031387150A308316CC000030B1
:10089000CD002A21871110300705F0000030003903
:1008A000F100F009F109700871040319582C4B2C60
:1008B0008101BF01C001071E5E2C5B2C3F08F100C7
:1008C000F0010108F0070318F10A2224AE30F40009
:1008D0004730F5006B30F6008430F700D121532308
:0408E0008B1208006F
:1008E40083120313F8010830FC00700DF80D74082E
:1008F400F80203187F2CF8070310F00DFC0B772C7B
:020904000800E9
:100906003E2318236B08013A031D452DB8227008B3
:10091600BE00B8227008BD00B8227008C000B82218
:100926007008C500B8227008C300C4013D083E0720
:10093600F000F1010318F10A4008F0070318F10A64
:100946004508F0070318F10AFF307005F200710838
:10095600F3000030F30544087306031DB42C720837
:100966004306031D352D4008C100C2013E0883120F
:10097600EE00EF0101308316CE0090200130831681
:10098600C8000630C9004D30CA0090210230C800A8
:100996000230C9004130CA0090210130C8000C3035
:1009A600C9000A30F4000030F5004108F0004208A2
:1009B600F1009B220A30F4000030F5009B227808F3
:1009C600F0007908F1007008303E8316CA00EB2368
:1009D6000130C8000D30C9000A30F4000030F500BF
:1009E6004108F0004208F1009B227808F0007908DF
:1009F600F1007008303E8316CA00EB230230C800AF
:100A06000C30C9000A30F4000030F50083126E087D
:100A1600F0006F08F1009B220A30F4000030F50068
:100A26009B227808F0007908F1007008303E8316A2
:100A3600CA00EB230230C8000D30C9000A30F400AA
:100A46000030F50083126E08F0006F08F1009B225B
:100A56007808F0007908F1007008303E8316CA0065
:100A6600EB23442D0C30CE00902001308316CE00AF
:100A7600902001308316C8000130C9005530CA00E5
:100A86009021572D83160130C8000330C900B030BD
:100A9600CA0090210230C8000130C900A030CA0047
:100AA60090210130CE009020E8308316CC00033030
:060AB600CD00052108003F
:100ABC00831603138811081108128812081388135F
:100ACC0083128811081188130813881208127C20CD
:100ADC007C207C20881608168815792088117C20AB
:100AEC008815792088117C208815792088117C2024
:100AFC0008128815792088117C2088157920881196
:100B0C00881288178815792088117C20881308167C
:100B1C0088157920881108128815792088117C2075
:100B2C0088157920881108168815792088117C2061
:100B3C000812881579208811881708178816081646
:0E0B4C008815792088117C2083163C1408003F
:100B5A0088228A110A128000840AEC0A0319ED0A13
:080B6A00F003031DAD2D08008E
:100B7200013083160313BF00871107168716071764
:100B820009158512880187100711061486100611AF
:100B9200861106120E238F22831681018312810190
:100BA200BF01C0018E018F0101309000D0308B0057
:100BB20083160C158C140D14083083129D00D0304E
:0E0BC2009B0007309C008316C801B02308007A
:100BD000C0265E250C30CE00902001308316CE005A
:100BE0009020B925B030E5000430E600270803194D
:100BF000102E861740247008BD007108BE007108D1
:100C0000003C031D052E7008143C031C092E9501A1
:100C10000C2E8316C801B02383160D1083245F2E7B
:100C2000861383160D1483129501091D4E2EE8308C
:100C30006507F10066080318013E033EF2007108E3
:100C4000E5007208E6000D307202031D292EAC305B
:100C50007102031C2F2EE230E5000430E600E901AA
:100C6000EA013608F4000730F000722480306A068A
:100C7000F10080307102031D3F2E700869020318D5
:100C80004E2E6908363E840000080319492E851649
:100C90004A2E8512E90A0319EA0A312E0130831619
:100CA000CE00902001308316C8000130C9002830E2
:100CB000CA009021FA30CC00CD0105218512F62D15
:020CC000602EA4
:100D8000273084003E3083120313F0006630EC00FD
:100D90000630ED00AD25A03084001C308312F00039
:0C0DA000A430EC000630ED00AD2508008A
:020CCC000134F1
:100CCE007334653465342034703469346C346C3468
:0C0CDE0020346434693473347034003402
:0E0CEA0001340034013400340134003401348C
:040CF8000034003490
:040CFC00003400348C
:100D0000483475346D3469346434693474347934F6
:080D10003A342034253400348C
:100D1800543465346D3470343A34203443340034F8
:100D280043346834653463346B3420347334753435
:100D38006D3420346534723472346F347234003454
:100D4800663472346F346D342034743468346534E6
:100D58002034733465346E3473346F347234003431
:100D68004E346F34203472346534733470346F34D5
:080D78006E347334653400345D
:02400E004A2F37
:00000001FF
